:020000040800F2
:1000000020050020050100080B1D0008151A000836
:10001000091D0008510200087922000800000000B4
:100020000000000000000000000000000F1D00089C
:1000300053020008000000000D1D0008111D0008FB
:100040001F0100081F0100081F0100081F01000810
:100050001F0100081F0100081F0100081F01000800
:100060001F0100081F0100081F0100081F010008F0
:100070001F0100081F0100081F0100081F010008E0
:100080001F0100081F010008710100081F0100087E
:100090001F0100081F0100081F0100081F010008C0
:1000A0001F0100081F0100081F0100081F010008B0
:1000B0001F0100081F0100081F0100081F010008A0
:1000C0001F0100081F0100081F0100081F01000890
:1000D0001F0100086D2200081F0100081F01000811
:1000E0001F0100081F0100081F010008DFF810D0E1
:1000F00000F02CF800480047B9220008AFF3008058
:10010000200500200648804706480047FEE7FEE736
:10011000FEE7FEE7FEE7FEE7FEE7FEE7FEE7FEE7B7
:100120008D1D0008ED000008D2B201E000F8012B9F
:10013000491EFBD270470022F6E710B513460A4667
:1001400004461946FFF7F0FF204610BD064C074D48
:1001500006E0E06840F0010394E807009847103497
:10016000AC42F6D3FFF7C6FF6823000888230008D7
:10017000014800F05EB900001400002070B504468C
:1001800000688168C943C90717D1816821F001015E
:10019000816000F0E7FB05460AE000BF00F0E2FBEB
:1001A000401B022804D920688068C043C00706D0DD
:1001B00020688068C043C007F0D0002070BDA06AEE
:1001C00040F01000A062E06A40F00100E06201200F
:1001D00070BD0000F8B500260446009600688168EE
:1001E000C943C9072DD0816841F0010181601648DB
:1001F00016490068B0FBF1F000E0401E00900028B6
:10020000FBD100F0AFFB054616E000BF00F0AAFBF3
:10021000401B022810D920688068C043C0070BD05B
:10022000A06A40F01000A062E06A40F00100E062C5
:1002300084F824600120F8BD20688068C043C007AE
:10024000E4D10020F8BD00001000002040420F0063
:10025000FEE7704772B6FEE7F8B500250446009544
:1002600090F8240001280BD0012084F824002046B7
:10027000FFF784FF2046FFF7ADFF060002D050E0F5
:100280000220F8BDA06A20F4885040F00200A0626D
:10029000022000F005FC25490968B1FBF0F04000A0
:1002A00000E0401E00900028FBD12068816841F0EA
:1002B0000801816000F056FB074608E000F052FBA1
:1002C000C01B0A2803D920688068000715D420685D
:1002D00080680007F2D42068816841F004018160E1
:1002E00000F040FB074612E000F03CFBC01B0A2870
:1002F0000DD920688068400709D5A06A20F0020067
:1003000040F01000A06284F824500120F8BD20685D
:1003100080684007E8D4A06A20F0020040F00100A5
:10032000A06284F824503046F8BD00001000002080
:1003300070470000F8B50024009490F8242025466A
:10034000012A12D0012280F824204A681F23072A9C
:100350000DD20668776B521E02EB820293409F43D8
:100360000B6893401F43776319E00220F8BD0668CD
:100370000D2A0AD2376BD21F02EB820293409F43B1
:100380000B6893401F43376309E0F76A0D3A02EBAD
:10039000820293409F430B6893401F43F7620A68B1
:1003A000072306680A2A0AD3F7680A3A02EB4202D0
:1003B00093409F438B6893401F43F76008E0376981
:1003C00002EB420293409F438B6893401F43376187
:1003D0000A68102A01D0112A20D1124B02689A42D1
:1003E00017D193681B0219D4936843F400039360F8
:1003F0000968102912D10C490C4A0968B1FBF2F1C5
:1004000001EB8101490000E0491E00910029FBD168
:1004100004E0816A41F020018162012480F82450C7
:100420002046F8BD002401401000002040420F008B
:10043000704770B50446006806684568A90625D56A
:10044000B10723D5A16AC90603D4A16A41F400719A
:10045000A1628168C1F34241072910D1217B71B9A2
:10046000416821F020014160A06A20F48070A06200
:10047000A06AC00403D4A06A40F00100A062204634
:10048000FFF7D6FF21686FF01200086028062ED50E
:1004900070072CD5A06AC00603D4A06A40F40050AF
:1004A000A06220688168C1F30231072909D0416840
:1004B000490515D48168C1F34241072910D1217B38
:1004C00071B9416821F080014160A06A20F4805038
:1004D000A062A06AC00503D4A06A40F00100A06237
:1004E0002046FFF725FF21686FF00C0008606806C2
:1004F0000CD5F0070AD0A06A40F48030A0622046F4
:1005000000F094F821686FF00100086070BD0000F1
:100510002DE9F0414FF0000704003D467ED0A06A6F
:10052000002628B9E66284F82460204600F080F8AE
:100530002046FFF723FEA16AC90600D420B1A06AB5
:1005400040F01000A06269E0A16A21F4885141F0F6
:100550000201A1626268E169237B0A4347EA430121
:100560000A43A1684FF48077B94209D0012907D026
:100570005FF0000194F814C0BCF1010F02D00AE052
:100580003946F7E7F3B1A36A43F02003A362E36AB5
:1005900043F00103E3622368D3F804C02CF4694CF0
:1005A0004CEA010CC3F804C021688B68DFF870C006
:1005B00003EA0C0313438B60A168B9420BD00129F5
:1005C00009D00CE0DFF85CC0A3690CEB43330B43AC
:1005D00043F40061DFE7218A0D05A5F58015216848
:1005E000CB6A23F470032B43CB62216889680E4BDE
:1005F0001940914208D1E662A16A21F0020141F05E
:100600000101A162BDE8F081A06A20F0020040F083
:100610001000A062E06A40F00100E0620120F1E712
:10062000FDF7E1FF00E0FFFFFE0E1FFF7047000037
:1006300000B585B0002100910191029103910068FD
:100640001249884220D11248816941F400718161C8
:10065000816901F400710491816941F004018161B3
:100660008069694600F00400049004200090032093
:100670000190084800F080F800221146122000F096
:10068000DDF9122000F0CCF905B000BD00240140D6
:10069000001002400008014010B590F8211000221F
:1006A000022905D00421816380F82020012010BD9B
:1006B00001680B6823F00E030B6001680B6823F0E0
:1006C00001030B6090F84030C46B012101FA03F381
:1006D000636080F8211080F82020104610BD0000D3
:1006E00010B590F821100024022903D00421816361
:1006F00001243DE001680A6822F00E020A600168E8
:100700000A6822F001020A601A4A0168914201D186
:10071000012121E0174A1432914201D110211BE03E
:10072000144A2832914201D1891515E0114A3C3210
:10073000914201D189140FE00E4A5032914202D108
:100740004FF4803108E00B4A6432914202D14FF4F9
:10075000801101E04FF08071064A083A5160012192
:1007600080F82110002180F82010416B01B18847EA
:10077000204610BD080002402DE9F84FDFF8B8917F
:100780000024A9F1040B23460F2709F1040AABF159
:10079000040EC9E00125A5402A40AA427DD1674E3A
:1007A000D1F804C0ACEB0608B44532D014DCBCF17F
:1007B000030F3AD009DCBCF1000F2AD0BCF1010FC5
:1007C0001CD0BCF1020F31D11DE0BCF1110F17D0CC
:1007D000BCF1120F2AD119E0B8F5881F19D006DC38
:1007E000B8F5803F15D0B8F5801F1FD111E0B8F5DE
:1007F000001F0ED0B8F5041F18D10AE0CB6815E031
:10080000CB681B1D12E0CB6808330FE0CB680C33BC
:100810000CE08B682BB1012B4FF0080303D045612E
:1008200004E0042302E0056100E00023FF2A01D870
:10083000064601E000F104064FEA840501D9A5F15E
:100840002005D6F8008007FA05FC28EA0C0803FA10
:1008500005F548EA0508C6F800804D68ED0062D548
:10086000374DAE6946F00106AE61AD6924F003066E
:1008700005F001050095334D06EB050CDCF808503A
:10088000A607360F07FA06F825EA0805DFF8B8804C
:10089000404503D14FF0000817E044E0DFF8AC809A
:1008A000404502D14FF001080FE0DFF8A480404539
:1008B00002D14FF0020808E0DFF89880404502D1ED
:1008C0004FF0030801E04FF0040808FA06F848EA80
:1008D0000508CCF808804D68D9F80060ED024D4657
:1008E00001D5164300E096432E604D68DAF80060AB
:1008F000AD02554601D5164300E096432E604D6883
:10090000DBF80060AD035D4601D5164300E0964379
:100910002E604D68DEF80060ED03754601D5164384
:1009200000E096432E60641C0D682A46E5407FF483
:1009300031AFBDE8F88F000008040140000011103D
:10094000001002400000014000080140000C01407E
:1009500000100140001401400AB101617047090410
:10096000FBE7000001488068704700000400002099
:1009700002488168027811448160704704000020B9
:10098000074810B5016841F010010160032000F034
:1009900075F80F2000F006F800F024F8002010BDD4
:1009A0000020024070B50D4D04464FF47A7128784E
:1009B000B1FBF0F00A490968B1FBF0F000F0A4FBCC
:1009C00048B9102C07D200222146501E00F036F8FC
:1009D00000206C6070BD012070BD0000040000208C
:1009E000100000200C4808B5816941F001018161C7
:1009F000816901F001010091C16941F08051C1613B
:100A0000C06900F0805000900448416821F0E06126
:100A100041F00071416008BD00100240000001403B
:100A2000002809DB00F01F020121914040098000ED
:100A300000F1E020C0F8001170470000F0B40E4B48
:100A40001B680C46C3F30223C3F10705042D00D92C
:100A50000425191D072901D2002300E0DB1E012611
:100A600006FA05F1491E214099409E40761E164027
:100A70003143F0BC01F001BC0CED00E0064900F090
:100A8000070208684FF6FF03184040EA0220034AB5
:100A900010430860704700000CED00E00000FA050C
:100AA00010B501460020234C012922D0022939D05B
:100AB00010291DD161682268D20119D51E48C1F3E1
:100AC0008342C903805C0AD561681B4AC1F3404177
:100AD000921E515C194AB2FBF1F1484301E01849FA
:100AE00048436168490203D440000321B0FBF1F0A0
:100AF00010BD226AC2F30121012903D1920701D559
:100B0000C80310BD022905D1626A920702D549F6D1
:100B1000404010BD0329FCD121688903F9D54FF26B
:100B2000244010BD00F02AF96168C1F38131491CED
:100B30004900DBE7001002404023000800127A0061
:100B400000093D002DE9F84305460078354CC00703
:100B500054D0E0690026C00008D4E06940F080501D
:100B6000E061E069012600F0805000902E480168A5
:100B7000C90512D40168804641F480710160FFF715
:100B8000F1FE074605E000BFFFF7ECFEC01B64283E
:100B900023D8D8F80000C005F6D5206A10F44070BC
:100BA00021D0A98801F4407181421CD0206A1F49DC
:100BB000012220F440700A6000220A602062C0070F
:100BC00011D0FFF7CFFE074641F2883808E000BF9A
:100BD000FFF7C8FEC11B414502D90320BDE8F883D9
:100BE000206A8007F4D5206A696820F440700843C1
:100BF00020621EB1E06920F08050E0612878800713
:100C000005D56068A96820F44040084360602878F2
:100C1000C00605D56068E96820F48000084360607C
:100C20000020DBE700100240007000404004424218
:100C30002DE9F0470F46050061D0434E306800F0C3
:100C40000700B84209D2306820F00700384330600E
:100C5000306800F00700B84251D128683B4C81074A
:100C600012D5400703D5606840F4E06060602878E2
:100C7000000703D5606840F4605060606068A96850
:100C800020F0F000084360602878C00728D068682A
:100C9000012810D02168022810D0890700292EDAF7
:100CA000616821F0030101436160FFF75BFE80464C
:100CB00041F288390DE021688903EFE78901EDE70A
:100CC000FFF750FEA0EB0801494502D90320BDE81B
:100CD000F0876068696800F00C00B0EB810FEFD11D
:100CE000306800F00700B8420BD9306820F00700E8
:100CF00038433060306800F00700B84201D001206E
:100D0000E5E72878400705D56068E96820F4E060E9
:100D1000084360602878000706D56068296920F4D8
:100D2000605040EAC100606000F038F86168084A2D
:100D3000C1F30311515CC8400649086006480068C9
:100D4000FFF730FE0020C2E7002002400010024002
:100D50005023000810000020080000200448054926
:100D600000684968044AC1F30221515CC8407047D9
:100D700010000020001002406023000804480549CC
:100D800000684968044AC1F3C221515CC8407047F9
:100D90001000002000100240602300080E4A516835
:100DA0000E4801F00C03042B11D0082B0FD10C4876
:100DB000C1F38343C903C05C0AD55168084AC1F333
:100DC0004041921E515C054A5043B0FBF1F0704720
:100DD00004494843704700000010024000127A00A6
:100DE0002E23000800093D002DE9F84F040070D0C3
:100DF0002078C04DC00749D06868C0F38100012841
:100E000007D06868C0F38100022809D16868C00370
:100E100006D52868800339D560680028E7D035E01A
:100E20006068B0F5803F0BD010B1B0F5A02F11D0A5
:100E3000286820F480302860286820F4802002E0B0
:100E4000286840F480302860606890B1FFF78AFD20
:100E500006460AE0286840F480202860F0E700BFDA
:100E6000FFF780FD801B642873D828688003F7D5BE
:100E70000CE0FFF777FD064605E000BFFFF772FDC7
:100E8000801B6428F0D828688003F7D420789A4E15
:100E900080074FF001094FF0000839D5686810F05D
:100EA0000C0F07D06868C0F38100022809D1686878
:100EB000C00306D42868800714D52069012808D10A
:100EC00010E02069B0B1C6F80090FFF74BFD07466F
:100ED00005E00AE1FFF746FDC01B0228C4D82868D8
:100EE0008007F7D52868616920F0F80040EAC10062
:100EF00028600DE0C6F80080FFF734FD074604E0E7
:100F0000FFF730FDC01B022823D828688007F7D4DC
:100F1000207800072CD57948A169D9B1C0F8009094
:100F2000FFF720FD074604E0FFF71CFDC01B022869
:100F30000FD8686A8007F7D571484FF4FA510068F6
:100F4000B0FBF1F0009000BF0098411E0091FAD272
:100F50000EE080E0C0F80080FFF704FD074604E0E3
:100F6000FFF700FDC01B022875D8686A8007F7D418
:100F70002078400760D5E8690027C00008D4E869F8
:100F800040F08050E861E869012700F0805000904F
:100F90005C480168C90513D40168834641F4807137
:100FA0000160FFF7DFFC824606E000BFFFF7DAFCD6
:100FB000A0EB0A0064284ED8DBF80000C005F5D588
:100FC000E06801280AD008B1052813D0286A20F06B
:100FD00001002862286A20F0040002E0286A40F03C
:100FE00001002862E06841F2883B98B1FFF7BAFC43
:100FF00082460BE0286A40F004002862EEE700BF5A
:10100000FFF7B0FCA0EB0A0159455AD8286A8007BF
:10101000F6D50CE0FFF7A6FC824605E0FFF7A2FC40
:10102000A0EB0A0159454CD8286A8007F6D41FB1B5
:10103000E86920F08050E861E06988B36968C1F32D
:101040008101022944D00228C6F8608004D0FFF74D
:1010500089FC044638E034E0FFF784FC074604E0EE
:10106000FFF780FCC01B02282BD828688001F7D42A
:10107000206AB0F5803F05D16868A16820F400308F
:1010800008436860D4E908010843696821F47411D1
:1010900008436860C6F86090FFF764FC044606E009
:1010A00025E000BFFFF75EFC001B022809D8286876
:1010B0008001F7D51BE000BFFFF754FC001B02289E
:1010C00002D90320BDE8F88F28688001F4D40EE02F
:1010D0000128F7D06868226A00F48031914204D177
:1010E000616A00F47010884201D00120EAE7002014
:1010F000E8E7000000100240000042428004424243
:10110000100000200070004010B5401EB0F1807F3C
:1011100001D3012010BD4FF0E02460610F21601762
:1011200001F0ABF80020A06107202061002010BD75
:1011300010B590F83C20012A22D0012280F83C20F2
:10114000CA688C6822F4407222434C6822F48062A0
:1011500022430C6822F4006222430C6922F480527C
:1011600022434C6922F400522243C969002322F42D
:1011700080420A4301684A6480F83C30002010BD78
:10118000022010BD70B590F83C20012A26D0012421
:1011900080F83C40022280F83D2003685A689D6830
:1011A00022F070060A6832435A600D4B02689A4278
:1011B00008D0B2F1804F05D00A4B9A4202D00A4BB8
:1011C0009A4204D1496825F080031943916080F860
:1011D0003D40002180F83C10084670BD022070BDE3
:1011E000002C0140000400400008004010B504003D
:1011F00003D094F83D0010B107E0012010BD00209D
:1012000084F83C00204600F01FF8022084F83D00DE
:10121000211D206800F0BCFD012084F8460084F800
:101220003E0084F83F0084F8400084F8410084F8D0
:10123000420084F8430084F8440084F8450084F8B0
:101240003D00002010BD000008B50C4A01680C48A4
:10125000914207D1816941F400618161806900F4A4
:10126000006009E0B1F1804F07D1C16941F001018F
:10127000C161C06900F00100009008BD002C014070
:101280000010024070B5044690F83C00002501288B
:1012900017D0012684F83C60022084F83D002068C5
:1012A000826822F0770222F47F4282600868502828
:1012B00038D00DDC20284FD005DC90B3102811D198
:1012C0004AE0022070BD302846D040280AD13BE0D9
:1012D00060282FD070280DD0B0F5805F03D0B0F516
:1012E000005F12D0012584F83D60002084F83C00A6
:1012F000284670BDCB68D1E90121206800F08BFD44
:101300002068816841F0770109E0CB68D1E90121CB
:10131000206800F080FD2068816841F48041816090
:10132000E1E719E0CA684968206800F029FE502109
:10133000206806E0CA684968206800F032FE602133
:10134000206800F072FDCEE7CA684968206800F0A6
:1013500017FE40212068F4E7226801461046F0E7B6
:1013600010B586B000210091019102910391224BAA
:1013700002682249022422489A4210D18A6942F026
:1013800004028A618969039401F004010491C11483
:10139000CDE900146946FFF7EFF906B010BDB2F1D0
:1013A000804FFAD18A6942F004028A618A6902F0A8
:1013B000040204928A6942F008028A6189690394EE
:1013C00001F0080104910321CDE900146946FFF7FB
:1013D000D3F94FF44060CDE900046946094803940D
:1013E000FFF7CAF90848416821F4407141F0E06113
:1013F00041F400714160D0E7002C01400010024030
:1014000000080140000C01400000014070B5044696
:1014100090F83C0000260D4601280FD0012084F8EA
:101420003C006AB1042A1DD0082A2FD00C2A3FD0D4
:101430000126002084F83C00304670BD022070BDBB
:10144000206800F0FBFC2068816941F0080181619F
:101450002068816921F004018161206881692A691D
:10146000114311E0206800F011FD2068816941F40A
:10147000006181612068816921F480618161206857
:1014800081692A6941EA02218161D2E7206800F07E
:1014900029FD2068C16941F00801C1612068C16966
:1014A00021F00401C1612068C1692A69114311E07A
:1014B000206800F043FD2068C16941F40061C1610A
:1014C0002068C16921F48061C1612068C1692A690D
:1014D00041EA0221C161ACE710B5040003D094F8E1
:1014E0003D0010B107E0012010BD002084F83C0051
:1014F000204600F01EF8022084F83D00211D2068DF
:1015000000F046FC012084F8460084F83E0084F890
:101510003F0084F8400084F8410084F8420084F8D9
:10152000430084F8440084F8450084F83D0000201E
:1015300010BD704710B50446022249B104290ED0EF
:10154000082913D094F84100012816D0012010BDBD
:1015500094F83E000128F9D184F83E200FE094F879
:101560003F000128F2D184F83F2008E094F84000C1
:101570000128EBD184F8402001E084F841200122C9
:10158000206800F03BFC0F492068884203D1426C80
:1015900042F4004242642068884208D0B0F1804F93
:1015A00005D00949884202D00849884204D181689F
:1015B00001F00701062903D0016841F00101016033
:1015C000002010BD002C0140000400400008004035
:1015D00070477047F8B5016804460868CA684B69E7
:1015E00010F00F0F4FF0000559D003F0010602F480
:1015F0009077374365D0C10705D0D10503D5616C1D
:1016000041F001016164410705D5D90703D0616C40
:1016100041F002016164810705D5D90703D0616CEF
:1016200041F004016164010707D502F02001314354
:1016300003D0616C41F008016164616C00293AD00B
:10164000800604D5900602D5204600F0FAFC2068FA
:101650004069616CC0F38010090700D460B3204674
:1016600000F0C8FC20684069400621D5206814308D
:1016700050E8001F21F0400140E80012002AF5D197
:10168000E06BA8B16D494163E06BFFF729F80028D2
:1016900011D0E06B416B01B0BDE8F0400847830614
:1016A0000FD593060DD52046BDE8F84000F0C9BC23
:1016B0002046FFF78EFFF8BD2046FFF78AFF6564DE
:1016C000F8BD266B2023012E7CD1C6067AD5D6061E
:1016D00078D508684868009048694FF002064006CF
:1016E00040D5E16B086840680004000CE8D0A28D8A
:1016F0008242E5D9E085886920282DD020680C3009
:1017000050E8001F21F4807140E80012002AF5D152
:101710002068143050E8001F21F0010140E8001259
:10172000002AF5D12068143050E8001F21F0400154
:1017300040E80012002AF5D184F842302563206881
:101740000C3050E8001F21F0100140E80012002A80
:10175000F5D1E06BFEF7A0FF6663A08DE18D401A26
:1017600081B22AE0A08DE18D401A81B2E08D00287F
:10177000A6D00029A4D022680C3252E8000F20F431
:10178000907042E80007002FF5D12068143050E82F
:10179000002F22F0010240E80027002FF5D184F845
:1017A0004230256320680C3050E8002F22F01002F0
:1017B00040E80023002BF5D166632046FFF708FFC1
:1017C000F8BDFFE705062BD5150629D594F841008D
:1017D0002128F5D1A068B0F5805F01D12069B0B1B2
:1017E000206A411C2162216800784860E08C401E1C
:1017F0000004000CE084E3D12068C16821F080017E
:10180000C1602068C16841F04001C160D8E7206A2A
:101810000088C0F308004860206A801C2062E5E769
:101820004006CDD55006CBD5CA68204622F04002EE
:10183000CA6084F8413000F0ECF8C1E7E51F000809
:1018400070B5040004D094F84100002510B106E002
:10185000012070BD84F84050204600F023F8242079
:1018600084F841002068C16821F40051C16020461D
:1018700000F048FC2068016921F490410161206872
:10188000416921F02A0141612068C16841F4005199
:10189000C1606564202084F8410084F842006563DB
:1018A000002070BD30B585B00024009401940294EE
:1018B00003940068184988422CD11848816941F482
:1018C00080418161816901F480410491816941F025
:1018D000040181618069124D00F0040004904FF40E
:1018E0000070009002200190032003906946284672
:1018F000FEF742FF2815CDE9000469462846029408
:10190000FEF73AFF002211462520FFF797F8252021
:10191000FFF786F805B030BD0038014000100240E6
:101920000008014090F84230202B01D0022070477F
:1019300021B11AB10023036300F040BC01207047BD
:101940000B4988420ED10B494878302804D0312801
:1019500004D0322804D005E0002002E0012000E09D
:101960000220087003490122491C0148FFF7DABF31
:10197000D4000020000000202DE9F843044690F830
:1019800041001F4616460D46202802D00220BDE821
:10199000F8837DB176B100206064212084F8410095
:1019A000FEF7E0FFA6848046E684A068B0F5805F7D
:1019B00002D003E00120EAE7206910B12E4600259D
:1019C0000EE000260CE08021204600F012FCA0B9B9
:1019D000AEB116F8010B21684860E08C401EE0842F
:1019E000E08C43464FF0000200970028EBD14FF007
:1019F0004001204600F0FDFB30B10320C7E735F879
:101A0000020BC0F30800E6E7202084F84100002024
:101A1000BDE77047FEE700003EB500241148009482
:101A2000019402940E4984600160012505730475D8
:101A300005614FF460214460C161FEF769FD08B1A2
:101A4000FEF708FC0220CDE900056946029405482E
:101A5000FEF770FC002801D0FEF7FCFB3EBD000045
:101A600000240140140000202DE9F04786B0002436
:101A70002D480094019402940394816941F010016F
:101A80008161816901F010010491816941F02001B7
:101A90008161816901F020010491816941F00401B3
:101AA0008161816901F004010491816941F00801BB
:101AB00081618069DFF8748000F008004FF4005500
:101AC0000490002229464046FEF746FFDFF860906A
:101AD0000022F0214846FEF73FFFDFF858A04EF203
:101AE0007B37002239465046FEF736FF0095022626
:101AF00001250396CDE9015469464046FEF73CFEB8
:101B0000F020CDE90005CDE9024669464846FEF7DA
:101B100033FE00970396CDE9015469465046FEF71F
:101B20002BFE06B0BDE8F087001002400010014017
:101B300000080140000C014010B596B000240F943D
:101B400010941194129413941C2108A81494FEF775
:101B5000F2FA20216846FEF7EEFA2948274901608B
:101B600041F61F41C0E9011441F28731C0E9031475
:101B70008021C0E90541FFF739FB08B1FEF76AFB98
:101B80004FF480500F900FA91D48FFF77BFB08B161
:101B9000FEF760FB1A48FFF79FFC08B1FEF75AFBFF
:101BA000139413A916481494FFF7ECFA08B1FEF742
:101BB00051FB6020CDE908040A940C940D940C228A
:101BC00008A90F480E94FFF721FC08B1FEF742FB6D
:101BD00000944FF40050CDE9044002940194039422
:101BE000694607480794FFF7A3FA08B1FEF732FBEE
:101BF0000348FFF7B5FB16B010BD0000002C0140F4
:101C00004400002010B58EB0002407940894099475
:101C10000A940B941C2168460C94FEF78CFA2B480E
:101C20004FF08041016041F61F41C0E9011441F2CB
:101C30008731C0E9031480218161FFF7D7FA08B129
:101C4000FEF708FB4FF48050079007A91F48FFF7E5
:101C500019FB08B1FEF7FEFA1C48FFF73DFC08B17E
:101C6000FEF7F8FA0B940BA918480C94FFF78AFAC0
:101C700008B1FEF7EFFA6020CDE9000402940022DB
:101C8000694612480494FFF7C1FB08B1FEF7E2FA77
:101C9000042269460D48FFF7B9FB08B1FEF7DAFAEE
:101CA000082269460948FFF7B1FB08B1FEF7D2FAEE
:101CB0000C2269460548FFF7A9FB08B1FEF7CAFAEE
:101CC0000248FFF74DFB0EB010BD00008C00002055
:101CD0000C4810B50A4901604FF4E1314160002120
:101CE00081600C22C160C0E904128161C161FFF70B
:101CF000A7FD002803D0BDE81040FEF7ABBA10BD29
:101D000000380140D4000020FEE7FEE7704770472E
:101D1000FEF72EBE30B593B028216846FEF70BFAC9
:101D200014210AA8FEF707FA002501200F95109547
:101D30001195010412958DE8230004904FF4E010F2
:101D4000CDE90810022407946846FFF74DF808B162
:101D500072B6FEE70AA90F2081E831004FF48060D7
:101D6000CDE90D0502210AA8FEF762FF08B172B69F
:101D7000FEE74FF4004011900F940FA8FEF7E2FE2B
:101D8000002801D072B6FEE713B030BD70470000E6
:101D9000F0B50268164B174C174D4FF0804798422C
:101DA00005D0B84203D0A04201D0A84203D122F00E
:101DB00070064A683243984205D0B84203D0A04228
:101DC00001D0A84203D122F44074CA6822434C696E
:101DD00022F08002224302608A68C2620A6882623C
:101DE000984201D10969016301214161F0BD000000
:101DF000002C0140000400400008004010B501F034
:101E00001F030121046A99408C430462016A9A40CD
:101E10001143016210BD10B5846842EA032224F424
:101E20007F440A432243826010BD826822F0700220
:101E30000A4342F0070181607047000030B5036A31
:101E4000026A22F0010202624268846924F073058A
:101E50000C682C4323F002058B682B430A4DA842E3
:101E60000BD123F00805CB6822F440722B434D6957
:101E700023F0040315438A692A4342608461496858
:101E80004163036230BD0000002C014030B5026A9E
:101E9000036A23F010030362436884690D6824F425
:101EA000E64444EA05248D6822F0200242EA051245
:101EB0000B4DA8420ED1CD6822F0800242EA0512F5
:101EC0004D6923F4406343EA85038D6922F04002A3
:101ED00043EA85034360846149688163026230BDDF
:101EE000002C014030B5036A026A22F4807202625B
:101EF0004268C46923F4007324F073050C682C4312
:101F00008D6843EA05230C4DA8420ED1CD6823F419
:101F1000006343EA05234D6922F4405242EA051268
:101F20008D6923F4806342EA05124260C461496806
:101F3000C163036230BD0000002C014030B5046A6B
:101F4000026A22F4805202624268C3690D6823F477
:101F5000E64343EA05238D6824F4005444EA05343B
:101F6000064DA84204D14D6922F4804242EA85120E
:101F70004260C36149680164046230BD002C0140C5
:101F800010B5036A046A24F001040462846924F031
:101F9000F00444EA021423F00A020A438461026254
:101FA00010BD10B5036A046A24F010040462846949
:101FB00023F0A00324F4704444EA023243EA0111FE
:101FC0008261016210BD000008B50D2000904FF63F
:101FD000FF73042269460248FFF7CEFC08BD0000EB
:101FE000D400002010B5406A0021C185C184FFF7EC
:101FF000F0FA10BD01680C3151E8002F22F4907204
:1020000041E80023002BF5D10168143151E8002F7D
:1020100022F0010241E80023002BF5D1016B0129D8
:1020200009D101680C3151E8002F22F0100241E87B
:102030000023002BF5D1202180F8421000210163FC
:10204000704708B590F84210222901D0022008BD3F
:1020500082684FF480539A4201D1016921B1816AAB
:102060009A421BD04AB10AE00268816A5268C2F300
:1020700008020A80816A891C08E0026972B102685C
:10208000526802F07F020A70816A491C8162C18D28
:10209000491E0904090CC18503D01BE0026852687F
:1020A000F1E70168CA6822F02002CA600168CA68C4
:1020B00022F48072CA6001684A6922F001024A6112
:1020C000202180F8421000214163026B012A03D0D5
:1020D000FFF736FC002008BD016301680C3151E8B0
:1020E000002F22F0100241E80023002BF5D10168F7
:1020F0000A68D20602D50A6849680091818DFFF707
:1021000067FAE7E770B5044600680169E26821F400
:102110004051114301612169A06808436169084386
:102120002168CA6841F20C639A430243CA6020687E
:102130004169A26921F44071114341611E4920683F
:10214000884202D1FEF71AFE01E0FEF707FE00EB1F
:10215000C00101EB0012606864218000B2FBF0F363
:10216000B3FBF1F36FF018067343B2FBF0F5B2FB6B
:10217000F0F605EB8305322303EB0515B5FBF1F50E
:10218000B6FBF1F605F0F00505EB0615B2FBF0F62F
:10219000B2FBF0F0B0FBF1F06FF01802504306EB29
:1021A000800003EB0010B0FBF1F0216800F00F009D
:1021B0002844886070BD000000380140816282853B
:1021C000C28500214164222180F84210016921B1B9
:1021D0000168CA6842F48072CA6001684A6942F0C4
:1021E00001024A610068C16841F02001C16000201D
:1021F00070472DE9F041984617460E460446069D65
:1022000027E0681C25D02DB1FEF7ACFBA0EB080041
:10221000A8421ED920680C3050E8001F21F4D0716C
:1022200040E80012002AF5D12068143050E8001F61
:1022300021F0010140E80012002AF5D1202084F8A5
:10224000410084F84200002084F840000320BDE8EB
:10225000F0812068006836EA000004D00020B8420F
:10226000CFD00020F3E70120F9E700000148FFF795
:10227000B1B90000D4000020FEE70907090E0028CC
:1022800004DB00F1E02080F80014704700F00F003C
:1022900000F1E02080F8141D704702E008C8121F0A
:1022A00008C1002AFAD170477047002001E001C13F
:1022B000121F002AFBD17047FEF762FBFFF72AFDD1
:1022C000FFF7D2FBFFF704FDFFF736FCFFF79AFCA0
:1022D000FFF7A2FB012210491048FFF723FB10482B
:1022E000FDF7BAFF00210F48FFF724F904210D483C
:1022F000FFF720F908210B48FFF71CF90C210948CA
:10230000FFF718F90C210848FFF714F9024C641E76
:102310002078FFF759FEFBE701000020D4000020E1
:10232000140000208C000020440000200102020361
:102330000405060708090A0B0C0D0E0F1010010208
:1023400002030405060708090A0B0C0D0E0F1010F6
:102350000000000000000000010203040607080955
:102360000000000001020304882300080000002090
:10237000140000009A2200089C230008140000208A
:102380000C050000AA220008000000000100000067
:0C23900010000000000000000024F40019
:04000005080000ED02
:00000001FF
