:020000040800F2
:1000000020050020050100088D1E0008C71A000801
:10001000B91D0008790300080D2800080000000041
:10002000000000000000000000000000911E000819
:100030007B030008000000008F1E0008931E0008CC
:100040001F0100081F0100081F0100081F01000810
:100050001F0100081F0100081F0100081F01000800
:100060001F0100081F0100081F0100081F010008F0
:100070001F0100081F0100081F0100081F010008E0
:100080001F0100081F010008710100081F0100087E
:100090001F0100081F0100081F0100081F010008C0
:1000A0001F0100081F0100081F0100081F010008B0
:1000B0001F0100081F0100081F0100081F010008A0
:1000C0001F0100081F0100081F0100081F01000890
:1000D0001F010008012800081F0100081F01000877
:1000E0001F0100081F0100081F010008DFF810D0E1
:1000F00000F02CF8004800474D280008AFF30080BE
:10010000200500200648804706480047FEE7FEE736
:10011000FEE7FEE7FEE7FEE7FEE7FEE7FEE7FEE7B7
:100120000F1F0008ED000008D2B201E000F8012B1B
:10013000491EFBD270470022F6E710B513460A4667
:1001400004461946FFF7F0FF204610BD064C074D48
:1001500006E0E06840F0010394E807009847103497
:10016000AC42F6D3FFF7C6FFF828000818290008AC
:10017000014800F0F2B900001400002070B50446F8
:1001800000688168C943C90717D1816821F001015E
:10019000816000F08DFC05460AE000BF00F088FC9D
:1001A000401B022804D920688068C043C00706D0DD
:1001B00020688068C043C007F0D0002070BDA06AEE
:1001C00040F01000A062E06A40F00100E06201200F
:1001D00070BD0000F8B500260446009600688168EE
:1001E000C943C9072DD0816841F0010181601648DB
:1001F00016490068B0FBF1F000E0401E00900028B6
:10020000FBD100F055FC054616E000BF00F050FCA5
:10021000401B022810D920688068C043C0070BD05B
:10022000A06A40F01000A062E06A40F00100E062C5
:1002300084F824600120F8BD20688068C043C007AE
:10024000E4D10020F8BD00001000002040420F0063
:1002500070B50D46134E14464FF40051012801D0DD
:1002600010B105E0012200E00022304600F01AFC47
:10027000012D01D015B106E0012200E00022082185
:10028000304600F00FFC012C08D0002C08D10022D1
:100290003046BDE87040102100F004BC0122F7E7B1
:1002A00070BD0000000C01402DE9F0478846DDE9F3
:1002B000086A4FF480412D4C994615464F0010B105
:1002C00001280AD016E00022204600F0EBFB0022B5
:1002D0003946204600F0E6FB0CE00122204600F003
:1002E000E1FB00223946204600F0DCFB204909688A
:1002F000C1F840801F4F15B1012D0BD017E000222F
:100300002021204600F0CEFB00224021204600F0B4
:10031000C9FB0CE001222021204600F0C3FB002293
:100320004021204600F0BEFB3968C1F83C904FF4F4
:1003300080714D007EB1012E0BD10122204600F0CC
:10034000B1FB00222946204600F0ACFB3968C1F819
:1003500040A0BDE8F0870022204600F0A3FB29461C
:100360002046BDE8F047002200F09CBB000C014095
:10037000440000208C000020FEE7704772B6FEE7C4
:10038000F8B500250446009590F8240001280BD00C
:10039000012084F824002046FFF7F0FE2046FFF7F6
:1003A00019FF060002D050E00220F8BDA06A20F438
:1003B000885040F00200A062022000F017FC25499E
:1003C0000968B1FBF0F0400000E0401E00900028FA
:1003D000FBD12068816841F00801816000F068FB72
:1003E000074608E000F064FBC01B0A2803D9206818
:1003F0008068000715D4206880680007F2D4206860
:10040000816841F00401816000F052FB074612E070
:1004100000F04EFBC01B0A280DD9206880684007F9
:1004200009D5A06A20F0020040F01000A06284F814
:1004300024500120F8BD206880684007E8D4A06AF5
:1004400020F0020040F00100A06284F82450304601
:10045000F8BD00001000002070470000F8B500242F
:10046000009490F824202546012A12D0012280F819
:1004700024204A681F23072A0DD20668776B521E74
:1004800002EB820293409F430B6893401F437763C4
:1004900019E00220F8BD06680D2A0AD2376BD21F78
:1004A00002EB820293409F430B6893401F433763E4
:1004B00009E0F76A0D3A02EB820293409F430B6812
:1004C00093401F43F7620A68072306680A2A0AD383
:1004D000F7680A3A02EB420293409F438B689340CD
:1004E0001F43F76008E0376902EB420293409F43E5
:1004F0008B6893401F4337610A68102A01D0112A84
:1005000020D1124B02689A4217D193681B0219D46A
:10051000936843F4000393600968102912D10C49D1
:100520000C4A0968B1FBF2F101EB8101490000E0DE
:10053000491E00910029FBD104E0816A41F02001AD
:100540008162012480F824502046F8BD0024014037
:100550001000002040420F00704770B5044600684C
:1005600006684568A90625D5B10723D5A16AC9063D
:1005700003D4A16A41F40071A1628168C1F34241D0
:10058000072910D1217B71B9416821F02001416018
:10059000A06A20F48070A062A06AC00403D4A06A9C
:1005A00040F00100A0622046FFF7D6FF21686FF0FF
:1005B0001200086028062ED570072CD5A06AC00648
:1005C00003D4A06A40F40050A06220688168C1F39F
:1005D0000231072909D04168490515D48168C1F362
:1005E0004241072910D1217B71B9416821F0800176
:1005F0004160A06A20F48050A062A06AC00503D4C4
:10060000A06A40F00100A0622046FFF725FF2168A4
:100610006FF00C00086068060CD5F0070AD0A06ADD
:1006200040F48030A062204600F094F821686FF01A
:100630000100086070BD00002DE9F0414FF0000797
:1006400004003D467ED0A06A002628B9E66284F800
:100650002460204600F080F82046FFF78FFDA16A55
:10066000C90600D420B1A06A40F01000A06269E081
:10067000A16A21F4885141F00201A1626268E16936
:10068000237B0A4347EA43010A43A1684FF480777A
:10069000B94209D0012907D05FF0000194F814C0D5
:1006A000BCF1010F02D00AE03946F7E7F3B1A36AC3
:1006B00043F02003A362E36A43F00103E36223688B
:1006C000D3F804C02CF4694C4CEA010CC3F804C004
:1006D00021688B68DFF870C003EA0C0313438B605A
:1006E000A168B9420BD0012909D00CE0DFF85CC049
:1006F000A3690CEB43330B4343F40061DFE7218A2A
:100700000D05A5F580152168CB6A23F470032B43F2
:10071000CB62216889680E4B1940914208D1E6628C
:10072000A16A21F0020141F00101A162BDE8F0815E
:10073000A06A20F0020040F01000A062E06A40F0E1
:100740000100E0620120F1E7FDF7E1FF00E0FFFFBB
:10075000FE0E1FFF7047000000B585B0002100911C
:1007600001910291039100681249884220D11248F8
:10077000816941F400718161816901F40071049122
:10078000816941F0040181618069694600F00400DB
:1007900004900420009003200190084800F092F893
:1007A00000221146122000F0EFF9122000F0DEF9CD
:1007B00005B000BD002401400010024000080140C7
:1007C00010B590F821100022022905D00421816380
:1007D00080F82020012010BD01680B6823F00E0373
:1007E0000B6001680B6823F001030B6090F8403048
:1007F000C46B012101FA03F3636080F8211080F8D3
:100800002020104610BD000010B590F821100024E3
:10081000022903D00421816301243DE001680A68B4
:1008200022F00E020A6001680A6822F001020A60E2
:100830001A4A0168914201D1012121E0174A14327C
:10084000914201D110211BE0144A2832914201D17A
:10085000891515E0114A3C32914201D189140FE00B
:100860000E4A5032914202D14FF4803108E00B4AD7
:100870006432914202D14FF4801101E04FF0807157
:10088000064A083A5160012180F82110002180F8C1
:100890002010416B01B18847204610BD080002407E
:1008A00070B5044600F004F90546601C02D0044807
:1008B0000078044400F0FCF8401BA042FAD370BD5D
:1008C000040000202DE9F84FDFF8B8910024A9F1C9
:1008D000040B23460F2709F1040AABF1040EC9E00B
:1008E0000125A5402A40AA427DD1674ED1F804C017
:1008F000ACEB0608B44532D014DCBCF1030F3AD09F
:1009000009DCBCF1000F2AD0BCF1010F1CD0BCF1F6
:10091000020F31D11DE0BCF1110F17D0BCF1120F45
:100920002AD119E0B8F5881F19D006DCB8F5803F48
:1009300015D0B8F5801F1FD111E0B8F5001F0ED0FB
:10094000B8F5041F18D10AE0CB6815E0CB681B1D71
:1009500012E0CB6808330FE0CB680C330CE08B68F7
:100960002BB1012B4FF0080303D0456104E00423B1
:1009700002E0056100E00023FF2A01D8064601E0FD
:1009800000F104064FEA840501D9A5F12005D6F847
:10099000008007FA05FC28EA0C0803FA05F548EA86
:1009A0000508C6F800804D68ED0062D5374DAE6988
:1009B00046F00106AE61AD6924F0030605F00105BD
:1009C0000095334D06EB050CDCF80850A607360FF2
:1009D00007FA06F825EA0805DFF8B880404503D194
:1009E0004FF0000817E044E0DFF8AC80404502D14A
:1009F0004FF001080FE0DFF8A480404502D14FF02E
:100A0000020808E0DFF89880404502D14FF0030863
:100A100001E04FF0040808FA06F848EA0508CCF8A7
:100A200008804D68D9F80060ED024D4601D51643A7
:100A300000E096432E604D68DAF80060AD0255463E
:100A400001D5164300E096432E604D68DBF8006048
:100A5000AD035D4601D5164300E096432E604D6818
:100A6000DEF80060ED03754601D5164300E09643BD
:100A70002E60641C0D682A46E5407FF431AFBDE866
:100A8000F88F00000804014000001110001002401F
:100A90000000014000080140000C0140001001402E
:100AA000001401400AB1016170470904FBE700002E
:100AB00001488068704700000400002002488168F7
:100AC000027811448160704704000020074810B587
:100AD000016841F010010160032000F075F80F205B
:100AE00000F006F800F024F8002010BD00200240BD
:100AF00070B50D4D04464FF47A712878B1FBF0F0D3
:100B00000A490968B1FBF0F000F0A4FB48B9102CC9
:100B100007D200222146501E00F036F800206C60FB
:100B200070BD012070BD00000400002010000020F6
:100B30000C4808B5816941F001018161816901F0CA
:100B400001010091C16941F08051C161C06900F0AB
:100B5000805000900448416821F0E06141F000714C
:100B6000416008BD0010024000000140002809DB80
:100B700000F01F02012191404009800000F1E020B7
:100B8000C0F8001170470000F0B40E4B1B680C4613
:100B9000C3F30223C3F10705042D00D90425191D51
:100BA000072901D2002300E0DB1E012606FA05F129
:100BB000491E214099409E40761E16403143F0BCAC
:100BC00001F025BE0CED00E0064900F007020868C0
:100BD0004FF6FF03184040EA0220034A1043086022
:100BE000704700000CED00E00000FA0510B501466A
:100BF0000020234C012922D0022939D010291DD1EF
:100C000061682268D20119D51E48C1F38342C90325
:100C1000805C0AD561681B4AC1F34041921E515C59
:100C2000194AB2FBF1F1484301E0184948436168B1
:100C3000490203D440000321B0FBF1F010BD226A49
:100C4000C2F30121012903D1920701D5C80310BDC8
:100C5000022905D1626A920702D549F6404010BDCB
:100C60000329FCD121688903F9D54FF2244010BD36
:100C700000F02AF96168C1F38131491C4900DBE7C2
:100C800000100240D028000800127A0000093D0040
:100C90002DE9F84305460078354CC00754D0E0698B
:100CA0000026C00008D4E06940F08050E061E069AF
:100CB000012600F0805000902E480168C90512D42A
:100CC0000168804641F480710160FFF7F1FE07463C
:100CD00005E000BFFFF7ECFEC01B642823D8D8F85E
:100CE0000000C005F6D5206A10F4407021D0A98814
:100CF00001F4407181421CD0206A1F49012220F476
:100D000040700A6000220A602062C00711D0FFF71D
:100D1000CFFE074641F2883808E000BFFFF7C8FE63
:100D2000C11B414502D90320BDE8F883206A800732
:100D3000F4D5206A696820F44070084320621EB12F
:100D4000E06920F08050E0612878800705D5606870
:100D5000A96820F44040084360602878C00605D5A3
:100D60006068E96820F48000084360600020DBE7E9
:100D70000010024000700040400442422DE9F0475C
:100D80000F46050061D0434E306800F00700B842BE
:100D900009D2306820F0070038433060306800F036
:100DA0000700B84251D128683B4C810712D5400753
:100DB00003D5606840F4E06060602878000703D5E0
:100DC000606840F4605060606068A96820F0F000DE
:100DD000084360602878C00728D06868012810D0D0
:100DE0002168022810D0890700292EDA616821F0D5
:100DF000030101436160FFF75BFE804641F28839E1
:100E00000DE021688903EFE78901EDE7FFF750FE68
:100E1000A0EB0801494502D90320BDE8F0876068CE
:100E2000696800F00C00B0EB810FEFD1306800F082
:100E30000700B8420BD9306820F007003843306013
:100E4000306800F00700B84201D00120E5E72878BB
:100E5000400705D56068E96820F4E06008436060F9
:100E60002878000706D56068296920F4605040EAB8
:100E7000C100606000F038F86168084AC1F30311EE
:100E8000515CC8400649086006480068FFF730FE1C
:100E90000020C2E70020024000100240E0280008C5
:100EA0001000002008000020044805490068496837
:100EB000044AC1F30221515CC84070471000002071
:100EC00000100240F02800080448054900684968FD
:100ED000044AC1F3C221515CC84070471000002091
:100EE00000100240F02800080E4A51680E4801F038
:100EF0000C03042B11D0082B0FD10C48C1F38343F2
:100F0000C903C05C0AD55168084AC1F34041921E2A
:100F1000515C054A5043B0FBF1F070470449484327
:100F2000704700000010024000127A00BE2800083E
:100F300000093D002DE9F84F040070D02078C04D25
:100F4000C00749D06868C0F38100012807D06868ED
:100F5000C0F38100022809D16868C00306D528685B
:100F6000800339D560680028E7D035E06068B0F5C7
:100F7000803F0BD010B1B0F5A02F11D0286820F41D
:100F800080302860286820F4802002E0286840F43F
:100F900080302860606890B1FFF78AFD06460AE05D
:100FA000286840F480202860F0E700BFFFF780FD4C
:100FB000801B642873D828688003F7D50CE0FFF7FE
:100FC00077FD064605E000BFFFF772FD801B642831
:100FD000F0D828688003F7D420789A4E80074FF025
:100FE00001094FF0000839D5686810F00C0F07D0E0
:100FF0006868C0F38100022809D16868C00306D47C
:101000002868800714D52069012808D110E02069DC
:10101000B0B1C6F80090FFF74BFD074605E00AE1C6
:10102000FFF746FDC01B0228C4D828688007F7D503
:101030002868616920F0F80040EAC10028600DE0EE
:10104000C6F80080FFF734FD074604E0FFF730FDE7
:10105000C01B022823D828688007F7D4207800070F
:101060002CD57948A169D9B1C0F80090FFF720FDCF
:10107000074604E0FFF71CFDC01B02280FD8686A72
:101080008007F7D571484FF4FA510068B0FBF1F0D2
:10109000009000BF0098411E0091FAD20EE080E05F
:1010A000C0F80080FFF704FD074604E0FFF700FDED
:1010B000C01B022875D8686A8007F7D420784007DB
:1010C00060D5E8690027C00008D4E86940F0805086
:1010D000E861E869012700F0805000905C480168F1
:1010E000C90513D40168834641F480710160FFF79C
:1010F000DFFC824606E000BFFFF7DAFCA0EB0A0047
:1011000064284ED8DBF80000C005F5D5E06801285A
:101110000AD008B1052813D0286A20F001002862FF
:10112000286A20F0040002E0286A40F001002862EA
:10113000E06841F2883B98B1FFF7BAFC82460BE0C9
:10114000286A40F004002862EEE700BFFFF7B0FC19
:10115000A0EB0A0159455AD8286A8007F6D50CE059
:10116000FFF7A6FC824605E0FFF7A2FCA0EB0A0110
:1011700059454CD8286A8007F6D41FB1E86920F099
:101180008050E861E06988B36968C1F38101022990
:1011900044D00228C6F8608004D0FFF789FC0446DA
:1011A00038E034E0FFF784FC074604E0FFF780FCFA
:1011B000C01B02282BD828688001F7D4206AB0F51C
:1011C000803F05D16868A16820F40030084368605A
:1011D000D4E908010843696821F474110843686080
:1011E000C6F86090FFF764FC044606E025E000BF07
:1011F000FFF75EFC001B022809D828688001F7D59C
:101200001BE000BFFFF754FC001B022802D903209B
:10121000BDE8F88F28688001F4D40EE00128F7D0EB
:101220006868226A00F48031914204D1616A00F456
:101230007010884201D00120EAE70020E8E70000B2
:101240000010024000004242800442421000002090
:101250000070004010B5401EB0F1807F01D3012026
:1012600010BD4FF0E02460610F21601701F0CFFA4C
:101270000020A06107202061002010BD10B590F86B
:101280003C20012A22D0012280F83C20CA688C68C8
:1012900022F4407222434C6822F4806222430C689C
:1012A00022F4006222430C6922F4805222434C69EA
:1012B00022F400522243C969002322F480420A43E7
:1012C00001684A6480F83C30002010BD022010BD47
:1012D00070B590F83C20012A26D0012480F83C40CB
:1012E000022280F83D2003685A689D6822F070064B
:1012F0000A6832435A600D4B02689A4208D0B2F134
:10130000804F05D00A4B9A4202D00A4B9A4204D130
:10131000496825F080031943916080F83D40002121
:1013200080F83C10084670BD022070BD002C0140C2
:10133000000400400008004010B5040003D094F8F9
:101340003D0010B107E0012010BD002084F83C00F2
:10135000204600F01FF8022084F83D00211D20687F
:1013600000F0D6FD012084F8460084F83E0084F8A1
:101370003F0084F8400084F8410084F8420084F87B
:10138000430084F8440084F8450084F83D000020C0
:1013900010BD000008B50C4A01680C48914207D105
:1013A000816941F400618161806900F4006009E0B5
:1013B000B1F1804F07D1C16941F00101C161C0693C
:1013C00000F00100009008BD002C01400010024018
:1013D00070B5044690F83C000025012817D001267E
:1013E00084F83C60022084F83D002068826822F086
:1013F000770222F47F4282600868502838D00DDCE2
:1014000020284FD005DC90B3102811D14AE00220EB
:1014100070BD302846D040280AD13BE060282FD04C
:1014200070280DD0B0F5805F03D0B0F5005F12D00A
:10143000012584F83D60002084F83C00284670BDFA
:10144000CB68D1E90121206800F0A5FD2068816802
:1014500041F0770109E0CB68D1E90121206800F073
:101460009AFD2068816841F480418160E1E719E0DC
:10147000CA684968206800F043FE5021206806E0F1
:10148000CA684968206800F04CFE6021206800F0BE
:101490008CFDCEE7CA684968206800F031FE402123
:1014A0002068F4E7226801461046F0E710B586B0E0
:1014B00000210091019102910391224B026822497F
:1014C000022422489A4210D18A6942F004028A61B9
:1014D0008969039401F004010491C114CDE9001459
:1014E0006946FFF7EFF906B010BDB2F1804FFAD1AF
:1014F0008A6942F004028A618A6902F00402049255
:101500008A6942F008028A618969039401F008013E
:1015100004910321CDE900146946FFF7D3F94FF494
:101520004060CDE90004694609480394FFF7CAF911
:101530000848416821F4407141F0E06141F40071D4
:101540004160D0E7002C014000100240000801403B
:10155000000C01400000014070B5044690F83C00CA
:1015600000260D4601280FD0012084F83C006AB106
:10157000042A1DD0082A2FD00C2A3FD00126002093
:1015800084F83C00304670BD022070BD206800F039
:1015900015FD2068816941F0080181612068816939
:1015A00021F004018161206881692A69114311E0F9
:1015B000206800F02BFD2068816941F400618161A1
:1015C0002068816921F480618161206881692A69CC
:1015D00041EA02218161D2E7206800F043FD2068E2
:1015E000C16941F00801C1612068C16921F00401AD
:1015F000C1612068C1692A69114311E0206800F0C7
:101600005DFD2068C16941F40061C1612068C16964
:1016100021F48061C1612068C1692A6941EA02211F
:10162000C161ACE710B5040003D094F83D0010B1DF
:1016300007E0012010BD002084F83C00204600F0A7
:101640001EF8022084F83D00211D206800F060FC97
:10165000012084F8460084F83E0084F83F0084F8B6
:10166000400084F8410084F8420084F8430084F884
:10167000440084F8450084F83D00002010BD704708
:1016800010B50446022249B104290ED0082913D00E
:1016900094F84100012816D0012010BD94F83E00B6
:1016A0000128F9D184F83E200FE094F83F0001288A
:1016B000F2D184F83F2008E094F840000128EBD1F3
:1016C00084F8402001E084F841200122206800F0E5
:1016D00055FC0F492068884203D1426C42F4004215
:1016E00042642068884208D0B0F1804F05D0094993
:1016F000884202D00849884204D1816801F007017C
:10170000062903D0016841F001010160002010BDED
:10171000002C014000040040000800407047704762
:10172000F8B5016804460868CA684B6910F00F0FE5
:101730004FF0000559D003F0010602F490773743CB
:1017400065D0C10705D0D10503D5616C41F0010119
:101750006164410705D5D90703D0616C41F00201EE
:101760006164810705D5D90703D0616C41F004019C
:101770006164010707D502F02001314303D0616C99
:1017800041F008016164616C00293AD0800604D5FB
:10179000900602D5204600F059FF20684069616C30
:1017A000C0F38010090700D460B3204600F027FF83
:1017B00020684069400621D52068143050E8001F99
:1017C00021F0400140E80012002AF5D1E06BA8B1F9
:1017D0006D494163E06BFFF717F8002811D0E06B0B
:1017E000416B01B0BDE8F040084783060FD5930672
:1017F0000DD52046BDE8F84000F028BF2046FFF791
:101800008EFFF8BD2046FFF78AFF6564F8BD266BA2
:101810002023012E7CD1C6067AD5D60678D5086855
:101820004868009048694FF00206400640D5E16BD9
:10183000086840680004000CE8D0A28D8242E5D917
:10184000E085886920282DD020680C3050E8001FE2
:1018500021F4807140E80012002AF5D1206814308C
:1018600050E8001F21F0010140E80012002AF5D1E4
:101870002068143050E8001F21F0400140E80012B9
:10188000002AF5D184F84230256320680C3050E8F6
:10189000001F21F0100140E80012002AF5D1E06B92
:1018A000FEF78EFF6663A08DE18D401A81B22AE0BB
:1018B000A08DE18D401A81B2E08D0028A6D00029CC
:1018C000A4D022680C3252E8000F20F4907042E855
:1018D0000007002FF5D12068143050E8002F22F0C7
:1018E000010240E80027002FF5D184F8423025633B
:1018F00020680C3050E8002F22F0100240E800234E
:10190000002BF5D166632046FFF708FFF8BDFFE71F
:1019100005062BD5150629D594F841002128F5D1C7
:10192000A068B0F5805F01D12069B0B1206A411C88
:101930002162216800784860E08C401E0004000CA1
:10194000E084E3D12068C16821F08001C160206893
:10195000C16841F04001C160D8E7206A0088C0F347
:1019600008004860206A801C2062E5E74006CDD56B
:101970005006CBD5CA68204622F04002CA6084F8DF
:10198000413000F09FF8C1E7EF25000870B5040072
:1019900004D094F84100002510B106E0012070BD8C
:1019A00084F84050204600F023F8242084F84100B9
:1019B0002068C16821F40051C160204600F0A8FEF3
:1019C0002068016921F4904101612068416921F09A
:1019D0002A0141612068C16841F40051C160656419
:1019E000202084F8410084F842006563002070BD27
:1019F00030B585B0002400940194029403940068EB
:101A0000184988422CD11848816941F4804181618C
:101A1000816901F480410491816941F0040181618F
:101A20008069124D00F0040004904FF400700090A3
:101A3000022001900320039069462846FEF742FFEA
:101A40002815CDE90004694628460294FEF73AFFBE
:101A5000002211462520FFF797F82520FFF786F88A
:101A600005B030BD003801400010024000080140C0
:101A700090F84230202B01D00220704721B11AB1DA
:101A80000023036300F0A0BE012070470B49884289
:101A90000ED10B494878302804D0312804D03228A0
:101AA00004D005E0002002E0012000E002200870E0
:101AB00003490122491C0148FFF7DABFD400002086
:101AC000000000207047FEE73EB500241148009456
:101AD000019402940E498460016001250573047528
:101AE00005614FF460214460C161FEF7A5FD08B1B6
:101AF000FEF744FC0220CDE9000569460294054842
:101B0000FEF7ACFC002801D0FEF738FC3EBD00001B
:101B100000240140140000202DE9F04786B0002485
:101B20002D480094019402940394816941F01001BE
:101B30008161816901F010010491816941F0200106
:101B40008161816901F020010491816941F0040102
:101B50008161816901F004010491816941F008010A
:101B600081618069DFF8748000F008004FF400554F
:101B70000490002229464046FEF794FFDFF860906B
:101B80000022F0214846FEF78DFFDFF858A04EF204
:101B90007B37002239465046FEF784FF0095022627
:101BA00001250396CDE9015469464046FEF78AFEB9
:101BB000F020CDE90005CDE9024669464846FEF72A
:101BC00081FE00970396CDE9015469465046FEF721
:101BD00079FE06B0BDE8F087001002400010014019
:101BE00000080140000C014010B596B000240F948D
:101BF00010941194129413941C2108A81494FEF7C5
:101C00009AFA20216846FEF796FA2948274901608A
:101C100041F61F41C0E9011441F28731C0E90314C4
:101C20008021C0E90541FFF787FB08B1FEF7A6FB5D
:101C30004FF480500F900FA91D48FFF7C9FB08B162
:101C4000FEF79CFB1A48FFF7EDFC08B1FEF796FB88
:101C5000139413A916481494FFF73AFB08B1FEF742
:101C60008DFB6020CDE908040A940C940D940C229D
:101C700008A90F480E94FFF76FFC08B1FEF77EFB32
:101C800000944FF40050CDE9044002940194039471
:101C9000694607480794FFF7F1FA08B1FEF76EFBB3
:101CA0000348FFF703FC16B010BD0000002C0140F4
:101CB0004400002010B58EB00024079408940994C5
:101CC0000A940B941C2168460C94FEF734FA2B48B6
:101CD0004FF08041016041F61F41C0E9011441F21B
:101CE0008731C0E9031480218161FFF725FB08B12A
:101CF000FEF744FB4FF48050079007A91F48FFF7F9
:101D000067FB08B1FEF73AFB1C48FFF78BFC08B1F4
:101D1000FEF734FB0B940BA918480C94FFF7D8FA84
:101D200008B1FEF72BFB6020CDE9000402940022ED
:101D3000694612480494FFF70FFC08B1FEF71EFB3A
:101D4000042269460D48FFF707FC08B1FEF716FBB1
:101D5000082269460948FFF7FFFB08B1FEF70EFBB2
:101D60000C2269460548FFF7F7FB08B1FEF706FBB2
:101D70000248FFF79BFB0EB010BD00008C00002056
:101D80000C4810B50A4901604FF4E131416000216F
:101D900081600C22C160C0E904128161C161FFF75A
:101DA000F5FD002803D0BDE81040FEF7E7BA10BDEE
:101DB00000380140D4000020FEE70000064B012857
:101DC00006D0002806D1002240211846FEF76ABE40
:101DD0000122F9E7704700000008014070B50F4C80
:101DE0000D4678B101280CD1012210212046FEF7C2
:101DF00059FE002220212046FEF754FE08480068C4
:101E0000456370BD002210212046FEF74BFE2046A0
:101E1000BDE8704000222021FEF744BE00080140CA
:101E20008C000020064B012806D0002806D1002295
:101E300080211846FEF736BE0122F9E77047000000
:101E40000008014070B50F4C0D4678B101280CD147
:101E5000012211462046FEF725FE002202212046DF
:101E6000FEF720FE08480068856370BD002201214E
:101E70002046FEF717FE2046BDE8704000220221F2
:101E8000FEF710BE000C01408C000020FEE77047FA
:101E90007047FEF713BE30B593B028216846FEF7B1
:101EA0004AF914210AA8FEF746F9002501200F95EA
:101EB00010951195010412958DE8230004904FF4BC
:101EC000E010CDE90810022407946846FFF732F8C5
:101ED00008B172B6FEE70AA90F2081E831004FF47D
:101EE0008060CDE90D0502210AA8FEF747FF08B181
:101EF00072B6FEE74FF4004011900F940FA8FEF762
:101F0000C7FE002801D072B6FEE713B030BD70479F
:101F1000F0B50268164B174C174D4FF080479842AA
:101F200005D0B84203D0A04201D0A84203D122F08C
:101F300070064A683243984205D0B84203D0A042A6
:101F400001D0A84203D122F44074CA6822434C69EC
:101F500022F08002224302608A68C2620A688262BA
:101F6000984201D10969016301214161F0BD00007E
:101F7000002C0140000400400008004010B501F0B2
:101F80001F030121046A99408C430462016A9A404C
:101F90001143016210BD10B5846842EA032224F4A3
:101FA0007F440A432243826010BD826822F070029F
:101FB0000A4342F0070181607047000030B5036AB0
:101FC000026A22F0010202624268846924F0730509
:101FD0000C682C4323F002058B682B430A4DA84262
:101FE0000BD123F00805CB6822F440722B434D69D6
:101FF00023F0040315438A692A43426084614968D7
:102000004163036230BD0000002C014030B5026A1C
:10201000036A23F010030362436884690D6824F4A3
:10202000E64444EA05248D6822F0200242EA0512C3
:102030000B4DA8420ED1CD6822F0800242EA051273
:102040004D6923F4406343EA85038D6922F0400221
:1020500043EA85034360846149688163026230BD5D
:10206000002C014030B5036A026A22F480720262D9
:102070004268C46923F4007324F073050C682C4390
:102080008D6843EA05230C4DA8420ED1CD6823F498
:10209000006343EA05234D6922F4405242EA0512E7
:1020A0008D6923F4806342EA05124260C461496885
:1020B000C163036230BD0000002C014030B5046AEA
:1020C000026A22F4805202624268C3690D6823F4F6
:1020D000E64343EA05238D6824F4005444EA0534BA
:1020E000064DA84204D14D6922F4804242EA85128D
:1020F0004260C36149680164046230BD002C014044
:1021000010B5036A046A24F001040462846924F0AF
:10211000F00444EA021423F00A020A4384610262D2
:1021200010BD10B5036A046A24F0100404628469C7
:1021300023F0A00324F4704444EA023243EA01117C
:102140008261016210BD2DE9FC5F002540F6AC58AC
:102150004FF416794FF4FA6701287ED0012440F23B
:10216000DC564FF47A7A022878D0032877D00428F6
:1021700076D0052875D0062874D0072873D1454637
:10218000C846D1460120FFF719FE29460120FFF776
:1021900025FE4046FEF784FB03210120FFF71EFECB
:1021A0003846FEF77DFB0020FFF73CFE2946012064
:1021B000FFF748FE4046FEF773FB03210120FFF7BF
:1021C00041FE3846FEF76CFB012211460020FEF767
:1021D0003FF8CDE900460122334631461046FEF76E
:1021E00063F84846FEF75CFB012300941A46194643
:1021F00018460194FEF758F83846FEF751FB0120C7
:10220000FFF710FE29460120FFF71CFE4046FEF7AF
:1022100047FB03210120FFF715FE3846FEF740FB80
:102220000020FFF7CBFD29460120FFF7D7FD4046F0
:10223000FEF736FB03210120FFF7D0FD3846FEF7FD
:102240002FFB002211460120FEF702F8CDE90046DF
:10225000012233463146104606E016E069E09DE073
:102260001AE19AE1B2E1C0E1FEF71EF84846FEF736
:1022700017FB012300941A46194618460194FEF7ED
:1022800013F83846FEF70CFB7CE700221146104697
:10229000FDF7DEFF002300951A4619461846019502
:1022A000FEF702F844464D460120FFF787FD214620
:1022B0000120FFF793FD2846FEF7F2FA00210846B9
:1022C000FFF78CFD3846FEF7EBFA0020FFF776FDAE
:1022D00021460120FFF782FD2846FEF7E1FA0021A2
:1022E0000846FFF77BFD3846FEF7DAFA0120FFF7D4
:1022F00099FD21460120FFF7A5FD2846FEF7D0FAFB
:1023000000210846FFF79EFD3846FEF7C9FA002077
:10231000FFF788FD21460120FFF794FD2846FEF7D0
:10232000BFFA00210846FFF78DFD3846FEF7B8FAE0
:10233000BAE7012211460020FDF78AFFCDE90046E9
:102340000122334631461046FDF7AEFF5046FEF7F8
:10235000A7FA002300951A46194618460195FDF77D
:10236000A3FF3846FEF79CFA002211460120FDF734
:102370006FFFCDE900460122334631461046FDF796
:1023800093FF5046FEF78CFA002300951A46194633
:1023900018460195FDF788FF384679E00120FFF7E0
:1023A0000DFD41460120FFF719FD4846FEF778FA7A
:1023B00000210846FFF712FDBB463846FEF770FACB
:1023C0000020FFF72FFD41460120FFF73BFD484667
:1023D000FEF766FA00210846FFF734FD5846FEF77F
:1023E0005FFA012211460020FDF732FFCDE90046D9
:1023F0000122334631461046FDF756FF57465046F8
:10240000FEF74EFA002300951A4619461846019524
:10241000FDF74AFF5846FEF743FA0120FFF702FD99
:1024200041460120FFF70EFD4846FEF739FA00212C
:102430000846FFF707FD5846FEF732FA0020FFF77F
:10244000BDFC41460120FFF7C9FC4846FEF728FACB
:1024500000210846FFF7C2FC5846FEF721FA002289
:1024600011460120FDF7F4FECDE900460122334676
:1024700031461046FDF718FF3846FEF711FA0023E3
:1024800000951A46194618460195FDF70DFF584666
:10249000BDE8FC5FFEF704BAC846BB46D146012042
:1024A000FFF78CFC40F6AC5739460120FFF796FC4D
:1024B0004046FEF7F5F900210846FFF78FFCDA46A3
:1024C0005846FEF7EDF90020FFF7ACFC3946012035
:1024D000FFF7B8FC4046FEF7E3F900210846FFF796
:1024E000B1FC5046FEF7DCF9012211460020FDF751
:1024F000AFFECDE900460122334631461046FDF7D6
:10250000D3FE4846FEF7CCF9002300951A4619463B
:1025100018460195FDF7C8FE5046FEF7C1F90120A7
:10252000FFF780FC39460120FFF78CFC4046FEF7A0
:10253000B7F900210846FFF785FC5046FEF7B0F9D1
:102540000020FFF73BFC39460120FFF747FC4046DF
:10255000FEF7A6F900210846FFF740FC5046FEF7BB
:102560009FF9002211460120FDF772FECDE90046D9
:102570000122334631461046FDF796FE4846FEF7E7
:102580008FF9002300951A46194618460195FDF764
:102590008BFE5046FEF784F981E7012211460020A8
:1025A000FDF756FECDE90046314601220B461046A6
:1025B000FDF77AFE5046FEF773F9012300941A46A0
:1025C000194618460194FDF76FFEFEE70120FFF75C
:1025D000F5FB41460120FFF701FC4846FEF760F994
:1025E00003210120FFF7FAFBFEE7BDE8FC9F10B5D1
:1025F000406A0021C185C184FFF791F810BD0168D0
:102600000C3151E8002F22F4907241E80023002B96
:10261000F5D10168143151E8002F22F0010241E8A0
:102620000023002BF5D1016B012909D101680C3180
:1026300051E8002F22F0100241E80023002BF5D1D1
:10264000202180F8421000210163704708B590F8FE
:102650004210222901D0022008BD82684FF4805325
:102660009A4201D1016921B1816A9A421BD04AB1D3
:102670000AE00268816A5268C2F308020A80816A2D
:10268000891C08E0026972B10268526802F07F0298
:102690000A70816A491C8162C18D491E0904090CB6
:1026A000C18503D01BE002685268F1E70168CA687F
:1026B00022F02002CA600168CA6822F48072CA60EF
:1026C00001684A6922F001024A61202180F8421023
:1026D00000214163026B012A03D0FFF7D7F90020E4
:1026E00008BD016301680C3151E8002F22F010028F
:1026F00041E80023002BF5D101680A68D20602D513
:102700000A6849680091818DFFF708F8E7E7000043
:1027100070B5044600680169E26821F44051114334
:1027200001612169A0680843616908432168CA689A
:1027300041F20C639A430243CA6020684169A2696E
:1027400021F44071114341611E492068884202D141
:10275000FEF7BAFB01E0FEF7A7FB00EBC00101EBBF
:102760000012606864218000B2FBF0F3B3FBF1F368
:102770006FF018067343B2FBF0F5B2FBF0F605EB11
:102780008305322303EB0515B5FBF1F5B6FBF1F636
:1027900005F0F00505EB0615B2FBF0F6B2FBF0F024
:1027A000B0FBF1F06FF01802504306EB800003EB32
:1027B0000010B0FBF1F0216800F00F0028448860A1
:1027C00070BD00000038014081628285C285002111
:1027D0004164222180F84210016921B10168CA6870
:1027E00042F48072CA6001684A6942F001024A619B
:1027F0000068C16841F02001C160002070470000FE
:102800000148FEF78DBF0000D4000020FEE7090755
:10281000090E002804DB00F1E02080F80014704766
:1028200000F00F0000F1E02080F8141D704702E076
:1028300008C8121F08C1002AFAD17047704700204B
:1028400001E001C1121F002AFBD17047FEF73EF9DB
:10285000FFF721FBFFF760F9FFF792FAFFF7C4F9E2
:10286000FFF728FAFFF730F901220F490F48FFF769
:10287000FFF80F48FDF784FD00210E48FEF700FF2A
:1028800004210C48FEF7FCFE08210A48FEF7F8FE7A
:102890000C210848FEF7F4FE0C210748FEF7F0FE75
:1028A0000120FFF750FCFBE701000020D4000020CE
:1028B000140000208C0000204400002001020203CC
:1028C0000405060708090A0B0C0D0E0F1010010273
:1028D00002030405060708090A0B0C0D0E0F101061
:1028E00000000000000000000102030406070809C0
:1028F0000000000001020304182900080000002065
:10290000140000002E2800082C29000814000020C4
:102910000C0500003E280008000000000100000037
:0C29200010000000000000000024F40083
:04000005080000ED02
:00000001FF
